{
  "abi": [
    {
      "inputs": [
        {
          "internalType": "address",
          "name": "_instance",
          "type": "address"
        }
      ],
      "stateMutability": "nonpayable",
      "type": "constructor"
    },
    {
      "inputs": [],
      "name": "callDeposit",
      "outputs": [],
      "stateMutability": "payable",
      "type": "function"
    },
    {
      "inputs": [],
      "name": "callExecute",
      "outputs": [],
      "stateMutability": "payable",
      "type": "function"
    },
    {
      "inputs": [],
      "name": "callMulticall",
      "outputs": [],
      "stateMutability": "payable",
      "type": "function"
    },
    {
      "inputs": [],
      "name": "callSetMaxBalance",
      "outputs": [],
      "stateMutability": "nonpayable",
      "type": "function"
    },
    {
      "inputs": [],
      "name": "callWhitelist",
      "outputs": [],
      "stateMutability": "nonpayable",
      "type": "function"
    },
    {
      "inputs": [],
      "name": "callpropNewAdmin",
      "outputs": [],
      "stateMutability": "nonpayable",
      "type": "function"
    },
    {
      "inputs": [],
      "name": "gamer",
      "outputs": [
        {
          "internalType": "address",
          "name": "",
          "type": "address"
        }
      ],
      "stateMutability": "view",
      "type": "function"
    },
    {
      "stateMutability": "payable",
      "type": "receive"
    }
  ],
  "bytecode": {
    "object": "0x60806040526040516200001290620004b2565b604080519182900382206002805460e092831c600160a01b90810263ffffffff60a01b19909216919091179182905560046020860190815260448601855293850180516001600160e01b03166001600160e01b03199290930490931b161790528152620000849060039060016200029a565b50604051620000939062000494565b604080519182900382206004805463ffffffff191660e092831c17908190558383019092528291901b620000cc600360648401620004db565b604051602081830303815290604052906001600160e01b0319166020820180516001600160e01b0383818316178352505050508152602001600460009054906101000a900460e01b6003604051602401620001289190620004db565b60408051601f198184030181529190526020810180516001600160e01b03166001600160e01b03199093169290921790915290526200016c906005906002620002fe565b503480156200017a57600080fd5b5060405162000af238038062000af28339810160408190526200019d9162000464565b600080546001600160a01b0383166001600160a01b031991821681179092556001805482169092179091556002805490911633179055620001e66001600160e01b036200020016565b620001f96001600160e01b036200026816565b50620005ab565b60015460405163531bb3a360e11b81526001600160a01b039091169063a63767469062000232903090600401620004c7565b600060405180830381600087803b1580156200024d57600080fd5b505af115801562000262573d6000803e3d6000fd5b50505050565b60005460405163e43252d760e01b81526001600160a01b039091169063e43252d79062000232903090600401620004c7565b828054828255906000526020600020908101928215620002ec579160200282015b82811115620002ec5782518051620002db91849160209091019062000350565b5091602001919060010190620002bb565b50620002fa929150620003d1565b5090565b828054828255906000526020600020908101928215620002ec579160200282015b82811115620002ec57825180516200033f91849160209091019062000350565b50916020019190600101906200031f565b828054600181600116156101000203166002900490600052602060002090601f016020900481019282601f106200039357805160ff1916838001178555620003c3565b82800160010185558215620003c3579182015b82811115620003c3578251825591602001919060010190620003a6565b50620002fa929150620003fc565b620003f991905b80821115620002fa576000620003ef828262000419565b50600101620003d8565b90565b620003f991905b80821115620002fa576000815560010162000403565b50805460018160011615610100020316600290046000825580601f1062000441575062000461565b601f016020900490600052602060002090810190620004619190620003fc565b50565b60006020828403121562000476578081fd5b81516001600160a01b03811681146200048d578182fd5b9392505050565b716d756c746963616c6c2862797465735b5d2960701b815260120190565b686465706f736974282960b81b815260090190565b6001600160a01b0391909116815260200190565b6000602080830181845280855480835260409250828601915082848202870101878652848620865b838110156200059d57888303603f190185528154889060018082168015620005345760018114620005515762000586565b60028304607f16875260ff1983168b880152898701935062000586565b60028304808852868d528b8d208d5b828110156200057d5781548a82018f0152908401908d0162000560565b89018d01955050505b509689019691945050919091019060010162000503565b509098975050505050505050565b61053780620005bb6000396000f3fe6080604052600436106100745760003560e01c8063660935fa1161004e578063660935fa146100ca578063a068d998146100d2578063df85a4b2146100e7578063e6c0ca75146100fc5761007b565b806318fb75f41461008057806319ab81e91461008a57806341c72c64146100b55761007b565b3661007b57005b600080fd5b610088610104565b005b34801561009657600080fd5b5061009f6101f8565b6040516100ac91906103cb565b60405180910390f35b3480156100c157600080fd5b50610088610207565b61008861026b565b3480156100de57600080fd5b506100886102f9565b3480156100f357600080fd5b50610088610329565b610088610359565b34670de0b6b3a7640000146101345760405162461bcd60e51b815260040161012b906104cf565b60405180910390fd5b6002546040805160048152602481018252602081018051600160a01b90940460e01b6001600160e01b0319166001600160e01b039094169390931790925260015490516000916001600160a01b0316903490610191908590610392565b60006040518083038185875af1925050503d80600081146101ce576040519150601f19603f3d011682016040523d82523d6000602084013e6101d3565b606091505b50509050806101f45760405162461bcd60e51b815260040161012b906104fc565b5050565b6002546001600160a01b031681565b60005460405163e43252d760e01b81526001600160a01b039091169063e43252d7906102379030906004016103cb565b600060405180830381600087803b15801561025157600080fd5b505af1158015610265573d6000803e3d6000fd5b50505050565b66038d7ea4c680003410156102925760405162461bcd60e51b815260040161012b906104cf565b600054604051631592ca1b60e31b81526001600160a01b039091169063ac9650d89034906102c590600590600401610407565b6000604051808303818588803b1580156102de57600080fd5b505af11580156102f2573d6000803e3d6000fd5b5050505050565b60015460405163531bb3a360e11b81526001600160a01b039091169063a6376746906102379030906004016103cb565b600054604051639d51d9b760e01b81526001600160a01b0390911690639d51d9b790610237903390600401610521565b600054604051635b0e93fb60e11b81526001600160a01b039091169063b61d27f69061023790339066071afd498d0000906004016103df565b60008251815b818110156103b25760208186018101518583015201610398565b818111156103c05782828501525b509190910192915050565b6001600160a01b0391909116815260200190565b6001600160a01b03929092168252602082015260606040820181905260009082015260800190565b6000602080830181845280855480835260409250828601915082848202870101878652848620865b838110156104c157888303603f19018552815488906001808216801561045c5760018114610478576104ab565b60028304607f16875260ff1983168b88015289870193506104ab565b60028304808852868d528b8d208d5b828110156104a25781548a82018f0152908401908d01610487565b89018d01955050505b509689019691945050919091019060010161042f565b509098975050505050505050565b6020808252601390820152720e6cadcc840c2e840d8cac2e6e8406240cae8d606b1b604082015260600190565b6020808252600b908201526a18d85b1b0819985a5b195960aa1b604082015260600190565b9081526020019056fea164736f6c6343000602000a",
    "linkReferences": {}
  }
}