{
  "abi": [
    {
      "anonymous": false,
      "inputs": [
        {
          "indexed": true,
          "internalType": "address",
          "name": "previousOwner",
          "type": "address"
        },
        {
          "indexed": true,
          "internalType": "address",
          "name": "newOwner",
          "type": "address"
        }
      ],
      "name": "OwnershipTransferred",
      "type": "event"
    },
    {
      "inputs": [
        {
          "internalType": "address",
          "name": "",
          "type": "address"
        }
      ],
      "name": "createInstance",
      "outputs": [
        {
          "internalType": "address",
          "name": "",
          "type": "address"
        }
      ],
      "stateMutability": "payable",
      "type": "function"
    },
    {
      "inputs": [],
      "name": "owner",
      "outputs": [
        {
          "internalType": "address",
          "name": "",
          "type": "address"
        }
      ],
      "stateMutability": "view",
      "type": "function"
    },
    {
      "inputs": [],
      "name": "proxyAd",
      "outputs": [
        {
          "internalType": "address",
          "name": "",
          "type": "address"
        }
      ],
      "stateMutability": "view",
      "type": "function"
    },
    {
      "inputs": [],
      "name": "renounceOwnership",
      "outputs": [],
      "stateMutability": "nonpayable",
      "type": "function"
    },
    {
      "inputs": [
        {
          "internalType": "address",
          "name": "newOwner",
          "type": "address"
        }
      ],
      "name": "transferOwnership",
      "outputs": [],
      "stateMutability": "nonpayable",
      "type": "function"
    },
    {
      "inputs": [
        {
          "internalType": "address payable",
          "name": "_instance",
          "type": "address"
        },
        {
          "internalType": "address",
          "name": "_player",
          "type": "address"
        }
      ],
      "name": "validateInstance",
      "outputs": [
        {
          "internalType": "bool",
          "name": "",
          "type": "bool"
        }
      ],
      "stateMutability": "nonpayable",
      "type": "function"
    }
  ],
  "bytecode": {
    "object": "0x608060405260006100176001600160e01b0361006616565b600080546001600160a01b0319166001600160a01b0383169081178255604051929350917f8be0079c531659141344cd1fd0a4f28419497f9722a3daafe3b4186f6b6457e0908290a35061006a565b3390565b611c43806100796000396000f3fe6080604052600436106200005c5760003560e01c8063715018a614620000615780637726f776146200007b5780638da5cb5b14620000c0578063d38def5b14620000d8578063e865386f146200012b578063f2fde38b1462000143575b600080fd5b3480156200006e57600080fd5b50620000796200017a565b005b620000a4600480360360208110156200009357600080fd5b50356001600160a01b03166200023d565b604080516001600160a01b039092168252519081900360200190f35b348015620000cd57600080fd5b50620000a4620004b0565b348015620000e557600080fd5b506200011760048036036040811015620000fe57600080fd5b506001600160a01b0381358116916020013516620004bf565b604080519115158252519081900360200190f35b3480156200013857600080fd5b50620000a462000549565b3480156200015057600080fd5b5062000079600480360360208110156200016957600080fd5b50356001600160a01b031662000558565b6200018462000673565b6001600160a01b031662000197620004b0565b6001600160a01b031614620001f3576040805162461bcd60e51b815260206004820181905260248201527f4f776e61626c653a2063616c6c6572206973206e6f7420746865206f776e6572604482015290519081900360640190fd5b600080546040516001600160a01b03909116907f8be0079c531659141344cd1fd0a4f28419497f9722a3daafe3b4186f6b6457e0908390a3600080546001600160a01b0319169055565b60003466038d7ea4c6800014620002865760405162461bcd60e51b815260040180806020018281038252602681526020018062001c116026913960400191505060405180910390fd5b6000604051620002969062000677565b604051809103906000f080158015620002b3573d6000803e3d6000fd5b506040805168056bc75e2d6310000060248083019190915282518083039091018152604490910182526020810180516001600160e01b031663b7b0422d60e01b179052905191925090600090309084908490620003109062000685565b80846001600160a01b03166001600160a01b03168152602001836001600160a01b03166001600160a01b0316815260200180602001828103825283818151815260200191508051906020019080838360005b838110156200037c57818101518382015260200162000362565b50505050905090810190601f168015620003aa5780820380516001836020036101000a031916815260200191505b50945050505050604051809103906000f080158015620003ce573d6000803e3d6000fd5b506040805163e43252d760e01b8152306004820152905191925082916001600160a01b0383169163e43252d791602480830192600092919082900301818387803b1580156200041c57600080fd5b505af115801562000431573d6000803e3d6000fd5b50505050806001600160a01b031663d0e30db0346040518263ffffffff1660e01b81526004016000604051808303818588803b1580156200047157600080fd5b505af115801562000486573d6000803e3d6000fd5b5050600180546001600160a01b0319166001600160a01b0387161790555092979650505050505050565b6000546001600160a01b031690565b600080839050826001600160a01b0316816001600160a01b031663f851a4406040518163ffffffff1660e01b815260040160206040518083038186803b1580156200050957600080fd5b505afa1580156200051e573d6000803e3d6000fd5b505050506040513d60208110156200053557600080fd5b50516001600160a01b031614949350505050565b6001546001600160a01b031681565b6200056262000673565b6001600160a01b031662000575620004b0565b6001600160a01b031614620005d1576040805162461bcd60e51b815260206004820181905260248201527f4f776e61626c653a2063616c6c6572206973206e6f7420746865206f776e6572604482015290519081900360640190fd5b6001600160a01b038116620006185760405162461bcd60e51b815260040180806020018281038252602681526020018062001beb6026913960400191505060405180910390fd5b600080546040516001600160a01b03808516939216917f8be0079c531659141344cd1fd0a4f28419497f9722a3daafe3b4186f6b6457e091a3600080546001600160a01b0319166001600160a01b0392909216919091179055565b3390565b610a67806200069483390190565b610af080620010fb8339019056fe608060405234801561001057600080fd5b50610a47806100206000396000f3fe6080604052600436106100915760003560e01c8063b61d27f611610059578063b61d27f614610138578063b7b0422d1461014b578063d0e30db01461016b578063d936547e14610173578063e43252d7146101a057610091565b806327e235e31461009657806373ad468a146100cc5780638da5cb5b146100e15780639d51d9b714610103578063ac9650d814610125575b600080fd5b3480156100a257600080fd5b506100b66100b13660046106b1565b6101c0565b6040516100c39190610a31565b60405180910390f35b3480156100d857600080fd5b506100b66101d2565b3480156100ed57600080fd5b506100f66101d8565b6040516100c391906107fd565b34801561010f57600080fd5b5061012361011e3660046107d5565b6101e7565b005b610123610133366004610769565b610242565b6101236101463660046106d8565b610428565b34801561015757600080fd5b506101236101663660046107d5565b610540565b610123610577565b34801561017f57600080fd5b5061019361018e3660046106b1565b6105fa565b6040516100c39190610811565b3480156101ac57600080fd5b506101236101bb3660046106b1565b61060f565b60036020526000908152604090205481565b60015481565b6000546001600160a01b031681565b3360009081526002602052604090205460ff1661021f5760405162461bcd60e51b8152600401610216906108e2565b60405180910390fd5b471561023d5760405162461bcd60e51b81526004016102169061095f565b600155565b3360009081526002602052604090205460ff166102715760405162461bcd60e51b8152600401610216906108e2565b6000805b8281101561042257606084848381811061028b57fe5b602002820190508035601e19368490030181126102a757600080fd5b9091016020810191503567ffffffffffffffff8111156102c657600080fd5b368190038213156102d657600080fd5b8080601f01602080910402602001604051908101604052809392919081815260200183838082843760009201919091525050506020820151919250506001600160e01b03198116630d0e30db60e41b141561034e5783156103495760405162461bcd60e51b8152600401610216906109fa565b600193505b60003087878681811061035d57fe5b602002820190508035601e193684900301811261037957600080fd5b9091016020810191503567ffffffffffffffff81111561039857600080fd5b368190038213156103a857600080fd5b6040516103b69291906107ed565b600060405180830381855af49150503d80600081146103f1576040519150601f19603f3d011682016040523d82523d6000602084013e6103f6565b606091505b50509050806104175760405162461bcd60e51b8152600401610216906109c3565b505050600101610275565b50505050565b3360009081526002602052604090205460ff166104575760405162461bcd60e51b8152600401610216906108e2565b336000908152600360205260409020548311156104865760405162461bcd60e51b81526004016102169061087d565b336000908152600360205260409020546104a6908463ffffffff61065d16565b336000908152600360205260408082209290925590516001600160a01b0386169085906104d690869086906107ed565b60006040518083038185875af1925050503d8060008114610513576040519150601f19603f3d011682016040523d82523d6000602084013e610518565b606091505b50509050806105395760405162461bcd60e51b815260040161021690610853565b5050505050565b600154156105605760405162461bcd60e51b815260040161021690610996565b600155600080546001600160a01b03191633179055565b3360009081526002602052604090205460ff166105a65760405162461bcd60e51b8152600401610216906108e2565b6001544711156105c85760405162461bcd60e51b815260040161021690610932565b336000908152600360205260409020546105e8903463ffffffff61068516565b33600090815260036020526040902055565b60026020526000908152604090205460ff1681565b6000546001600160a01b031633146106395760405162461bcd60e51b81526004016102169061090b565b6001600160a01b03166000908152600260205260409020805460ff19166001179055565b60008282111561067f5760405162461bcd60e51b8152600401610216906108ab565b50900390565b6000828201838110156106aa5760405162461bcd60e51b81526004016102169061081c565b9392505050565b6000602082840312156106c2578081fd5b81356001600160a01b03811681146106aa578182fd5b600080600080606085870312156106ed578283fd5b84356001600160a01b0381168114610703578384fd5b935060208501359250604085013567ffffffffffffffff80821115610726578384fd5b81870188601f820112610737578485fd5b8035925081831115610747578485fd5b886020848301011115610758578485fd5b959894975050602090940194505050565b6000806020838503121561077b578182fd5b823567ffffffffffffffff80821115610792578384fd5b81850186601f8201126107a3578485fd5b80359250818311156107b3578485fd5b86602080850283010111156107c6578485fd5b60200196919550909350505050565b6000602082840312156107e6578081fd5b5035919050565b6000828483379101908152919050565b6001600160a01b0391909116815260200190565b901515815260200190565b6020808252601b908201527f536166654d6174683a206164646974696f6e206f766572666c6f770000000000604082015260600190565b60208082526010908201526f115e1958dd5d1a5bdb8819985a5b195960821b604082015260600190565b602080825260149082015273496e73756666696369656e742062616c616e636560601b604082015260600190565b6020808252601e908201527f536166654d6174683a207375627472616374696f6e206f766572666c6f770000604082015260600190565b6020808252600f908201526e139bdd081dda1a5d195b1a5cdd1959608a1b604082015260600190565b6020808252600d908201526c2737ba103a34329037bbb732b960991b604082015260600190565b60208082526013908201527213585e0818985b185b98d9481c995858da1959606a1b604082015260600190565b60208082526019908201527f436f6e74726163742062616c616e6365206973206e6f74203000000000000000604082015260600190565b602080825260139082015272105b1c9958591e481a5b9a5d1a585b1a5e9959606a1b604082015260600190565b6020808252601b908201527f4572726f72207768696c652064656c65676174696e672063616c6c0000000000604082015260600190565b6020808252601f908201527f4465706f7369742063616e206f6e6c792062652063616c6c6564206f6e636500604082015260600190565b9081526020019056fea164736f6c6343000602000a60806040523480156200001157600080fd5b5060405162000af038038062000af0833981016040819052620000349162000251565b8181600160405162000046906200033e565b6040519081900390200360008051602062000aa9833981519152146200006857fe5b6200007c826001600160e01b03620000c916565b8051156200009d576200009b82826200011a60201b6200041f1760201c565b505b5050600180546001600160a01b0319166001600160a01b039490941693909317909255506200048b9050565b620000df816200015260201b620002ec1760201c565b620001075760405162461bcd60e51b8152600401620000fe906200039c565b60405180910390fd5b60008051602062000aa983398151915255565b60606200014b838360405180606001604052806027815260200162000ac9602791396001600160e01b036200015816565b9392505050565b3b151590565b60606200016e846001600160e01b036200015216565b6200018d5760405162461bcd60e51b8152600401620000fe90620003f9565b60006060856001600160a01b031685604051620001ab919062000320565b600060405180830381855af49150503d8060008114620001e8576040519150601f19603f3d011682016040523d82523d6000602084013e620001ed565b606091505b509092509050620002098282866001600160e01b036200021316565b9695505050505050565b60608315620002245750816200014b565b825115620002355782518084602001fd5b8160405162461bcd60e51b8152600401620000fe919062000367565b60008060006060848603121562000266578283fd5b8351620002738162000472565b6020850151909350620002868162000472565b60408501519092506001600160401b0380821115620002a3578283fd5b81860187601f820112620002b5578384fd5b8051925081831115620002c6578384fd5b604051601f8401601f191681016020018381118282101715620002e7578586fd5b604052838152818401602001891015620002ff578485fd5b620003128460208301602085016200043f565b809450505050509250925092565b60008251620003348184602087016200043f565b9190910192915050565b7f656970313936372e70726f78792e696d706c656d656e746174696f6e000000008152601c0190565b6000602082528251806020840152620003888160408501602087016200043f565b601f01601f19169190910160400192915050565b60208082526036908201527f5570677261646561626c6550726f78793a206e657720696d706c656d656e746160408201527f74696f6e206973206e6f74206120636f6e747261637400000000000000000000606082015260800190565b60208082526026908201527f416464726573733a2064656c65676174652063616c6c20746f206e6f6e2d636f6040820152651b9d1c9858dd60d21b606082015260800190565b60005b838110156200045c57818101518382015260200162000442565b838111156200046c576000848401525b50505050565b6001600160a01b03811681146200048857600080fd5b50565b61060e806200049b6000396000f3fe60806040526004361061004e5760003560e01c806326782247146100655780633659cfe614610090578063a02fcc0a146100b0578063a6376746146100d0578063f851a440146100f05761005d565b3661005d5761005b610105565b005b61005b610105565b34801561007157600080fd5b5061007a61011f565b6040516100879190610320565b60405180910390f35b34801561009c57600080fd5b5061005b6100ab3660046102f2565b61012e565b3480156100bc57600080fd5b5061005b6100cb3660046102f2565b61016d565b3480156100dc57600080fd5b5061005b6100eb3660046102f2565b6101e9565b3480156100fc57600080fd5b5061007a61020b565b61010d61011d565b61011d61011861021a565b61023f565b565b6000546001600160a01b031681565b6001546001600160a01b031633146101615760405162461bcd60e51b8152600401610158906103e8565b60405180910390fd5b61016a81610263565b50565b6001546001600160a01b031633146101975760405162461bcd60e51b8152600401610158906103e8565b6000546001600160a01b038281169116146101c45760405162461bcd60e51b815260040161015890610334565b50600054600180546001600160a01b0319166001600160a01b03909216919091179055565b600080546001600160a01b0319166001600160a01b0392909216919091179055565b6001546001600160a01b031681565b7f360894a13ba1a3210667c828492db98dca3e2076cc3735a920a3ca505d382bbc5490565b3660008037600080366000845af43d6000803e80801561025e573d6000f35b3d6000fd5b61026c816102a3565b6040516001600160a01b038216907fbc7cd75a20ee27fd9adebab32041f755214dbc6bffa90cc0225b39da2e5c2d3b90600090a250565b6102ac816102ec565b6102c85760405162461bcd60e51b815260040161015890610392565b7f360894a13ba1a3210667c828492db98dca3e2076cc3735a920a3ca505d382bbc55565b3b151590565b600060208284031215610303578081fd5b81356001600160a01b0381168114610319578182fd5b9392505050565b6001600160a01b0391909116815260200190565b602080825260409082018190527f4578706563746564206e65772061646d696e206279207468652063757272656e908201527f742061646d696e206973206e6f74207468652070656e64696e672061646d696e606082015260800190565b60208082526036908201527f5570677261646561626c6550726f78793a206e657720696d706c656d656e74616040820152751d1a5bdb881a5cc81b9bdd08184818dbdb9d1c9858dd60521b606082015260800190565b60208082526017908201527f43616c6c6572206973206e6f74207468652061646d696e000000000000000000604082015260600190565b606061031983836040518060600160405280602781526020016105db60279139606061044a846102ec565b6104665760405162461bcd60e51b815260040161015890610564565b60006060856001600160a01b0316856040516104829190610515565b600060405180830381855af49150503d80600081146104bd576040519150601f19603f3d011682016040523d82523d6000602084013e6104c2565b606091505b50915091506104d28282866104dc565b9695505050505050565b606083156104eb575081610319565b8251156104fb5782518084602001fd5b8160405162461bcd60e51b81526004016101589190610531565b600082516105278184602087016105aa565b9190910192915050565b60006020825282518060208401526105508160408501602087016105aa565b601f01601f19169190910160400192915050565b60208082526026908201527f416464726573733a2064656c65676174652063616c6c20746f206e6f6e2d636f6040820152651b9d1c9858dd60d21b606082015260800190565b60005b838110156105c55781810151838201526020016105ad565b838111156105d4576000848401525b5050505056fe416464726573733a206c6f772d6c6576656c2064656c65676174652063616c6c206661696c6564a164736f6c6343000602000a360894a13ba1a3210667c828492db98dca3e2076cc3735a920a3ca505d382bbc416464726573733a206c6f772d6c6576656c2064656c65676174652063616c6c206661696c65644f776e61626c653a206e6577206f776e657220697320746865207a65726f20616464726573734d7573742073656e6420302e3030312045544820746f2063726561746520696e7374616e6365a164736f6c6343000602000a",
    "linkReferences": {}
  }
}