{
  "abi": [
    {
      "inputs": [
        {
          "internalType": "address",
          "name": "addr",
          "type": "address"
        }
      ],
      "name": "addToWhitelist",
      "outputs": [],
      "stateMutability": "nonpayable",
      "type": "function"
    },
    {
      "inputs": [
        {
          "internalType": "address",
          "name": "",
          "type": "address"
        }
      ],
      "name": "balances",
      "outputs": [
        {
          "internalType": "uint256",
          "name": "",
          "type": "uint256"
        }
      ],
      "stateMutability": "view",
      "type": "function"
    },
    {
      "inputs": [],
      "name": "deposit",
      "outputs": [],
      "stateMutability": "payable",
      "type": "function"
    },
    {
      "inputs": [
        {
          "internalType": "address",
          "name": "to",
          "type": "address"
        },
        {
          "internalType": "uint256",
          "name": "value",
          "type": "uint256"
        },
        {
          "internalType": "bytes",
          "name": "data",
          "type": "bytes"
        }
      ],
      "name": "execute",
      "outputs": [],
      "stateMutability": "payable",
      "type": "function"
    },
    {
      "inputs": [
        {
          "internalType": "uint256",
          "name": "_maxBalance",
          "type": "uint256"
        }
      ],
      "name": "init",
      "outputs": [],
      "stateMutability": "nonpayable",
      "type": "function"
    },
    {
      "inputs": [],
      "name": "maxBalance",
      "outputs": [
        {
          "internalType": "uint256",
          "name": "",
          "type": "uint256"
        }
      ],
      "stateMutability": "view",
      "type": "function"
    },
    {
      "inputs": [
        {
          "internalType": "bytes[]",
          "name": "data",
          "type": "bytes[]"
        }
      ],
      "name": "multicall",
      "outputs": [],
      "stateMutability": "payable",
      "type": "function"
    },
    {
      "inputs": [],
      "name": "owner",
      "outputs": [
        {
          "internalType": "address",
          "name": "",
          "type": "address"
        }
      ],
      "stateMutability": "view",
      "type": "function"
    },
    {
      "inputs": [
        {
          "internalType": "uint256",
          "name": "_maxBalance",
          "type": "uint256"
        }
      ],
      "name": "setMaxBalance",
      "outputs": [],
      "stateMutability": "nonpayable",
      "type": "function"
    },
    {
      "inputs": [
        {
          "internalType": "address",
          "name": "",
          "type": "address"
        }
      ],
      "name": "whitelisted",
      "outputs": [
        {
          "internalType": "bool",
          "name": "",
          "type": "bool"
        }
      ],
      "stateMutability": "view",
      "type": "function"
    }
  ],
  "bytecode": {
    "object": "0x608060405234801561001057600080fd5b50610a47806100206000396000f3fe6080604052600436106100915760003560e01c8063b61d27f611610059578063b61d27f614610138578063b7b0422d1461014b578063d0e30db01461016b578063d936547e14610173578063e43252d7146101a057610091565b806327e235e31461009657806373ad468a146100cc5780638da5cb5b146100e15780639d51d9b714610103578063ac9650d814610125575b600080fd5b3480156100a257600080fd5b506100b66100b13660046106b1565b6101c0565b6040516100c39190610a31565b60405180910390f35b3480156100d857600080fd5b506100b66101d2565b3480156100ed57600080fd5b506100f66101d8565b6040516100c391906107fd565b34801561010f57600080fd5b5061012361011e3660046107d5565b6101e7565b005b610123610133366004610769565b610242565b6101236101463660046106d8565b610428565b34801561015757600080fd5b506101236101663660046107d5565b610540565b610123610577565b34801561017f57600080fd5b5061019361018e3660046106b1565b6105fa565b6040516100c39190610811565b3480156101ac57600080fd5b506101236101bb3660046106b1565b61060f565b60036020526000908152604090205481565b60015481565b6000546001600160a01b031681565b3360009081526002602052604090205460ff1661021f5760405162461bcd60e51b8152600401610216906108e2565b60405180910390fd5b471561023d5760405162461bcd60e51b81526004016102169061095f565b600155565b3360009081526002602052604090205460ff166102715760405162461bcd60e51b8152600401610216906108e2565b6000805b8281101561042257606084848381811061028b57fe5b602002820190508035601e19368490030181126102a757600080fd5b9091016020810191503567ffffffffffffffff8111156102c657600080fd5b368190038213156102d657600080fd5b8080601f01602080910402602001604051908101604052809392919081815260200183838082843760009201919091525050506020820151919250506001600160e01b03198116630d0e30db60e41b141561034e5783156103495760405162461bcd60e51b8152600401610216906109fa565b600193505b60003087878681811061035d57fe5b602002820190508035601e193684900301811261037957600080fd5b9091016020810191503567ffffffffffffffff81111561039857600080fd5b368190038213156103a857600080fd5b6040516103b69291906107ed565b600060405180830381855af49150503d80600081146103f1576040519150601f19603f3d011682016040523d82523d6000602084013e6103f6565b606091505b50509050806104175760405162461bcd60e51b8152600401610216906109c3565b505050600101610275565b50505050565b3360009081526002602052604090205460ff166104575760405162461bcd60e51b8152600401610216906108e2565b336000908152600360205260409020548311156104865760405162461bcd60e51b81526004016102169061087d565b336000908152600360205260409020546104a6908463ffffffff61065d16565b336000908152600360205260408082209290925590516001600160a01b0386169085906104d690869086906107ed565b60006040518083038185875af1925050503d8060008114610513576040519150601f19603f3d011682016040523d82523d6000602084013e610518565b606091505b50509050806105395760405162461bcd60e51b815260040161021690610853565b5050505050565b600154156105605760405162461bcd60e51b815260040161021690610996565b600155600080546001600160a01b03191633179055565b3360009081526002602052604090205460ff166105a65760405162461bcd60e51b8152600401610216906108e2565b6001544711156105c85760405162461bcd60e51b815260040161021690610932565b336000908152600360205260409020546105e8903463ffffffff61068516565b33600090815260036020526040902055565b60026020526000908152604090205460ff1681565b6000546001600160a01b031633146106395760405162461bcd60e51b81526004016102169061090b565b6001600160a01b03166000908152600260205260409020805460ff19166001179055565b60008282111561067f5760405162461bcd60e51b8152600401610216906108ab565b50900390565b6000828201838110156106aa5760405162461bcd60e51b81526004016102169061081c565b9392505050565b6000602082840312156106c2578081fd5b81356001600160a01b03811681146106aa578182fd5b600080600080606085870312156106ed578283fd5b84356001600160a01b0381168114610703578384fd5b935060208501359250604085013567ffffffffffffffff80821115610726578384fd5b81870188601f820112610737578485fd5b8035925081831115610747578485fd5b886020848301011115610758578485fd5b959894975050602090940194505050565b6000806020838503121561077b578182fd5b823567ffffffffffffffff80821115610792578384fd5b81850186601f8201126107a3578485fd5b80359250818311156107b3578485fd5b86602080850283010111156107c6578485fd5b60200196919550909350505050565b6000602082840312156107e6578081fd5b5035919050565b6000828483379101908152919050565b6001600160a01b0391909116815260200190565b901515815260200190565b6020808252601b908201527f536166654d6174683a206164646974696f6e206f766572666c6f770000000000604082015260600190565b60208082526010908201526f115e1958dd5d1a5bdb8819985a5b195960821b604082015260600190565b602080825260149082015273496e73756666696369656e742062616c616e636560601b604082015260600190565b6020808252601e908201527f536166654d6174683a207375627472616374696f6e206f766572666c6f770000604082015260600190565b6020808252600f908201526e139bdd081dda1a5d195b1a5cdd1959608a1b604082015260600190565b6020808252600d908201526c2737ba103a34329037bbb732b960991b604082015260600190565b60208082526013908201527213585e0818985b185b98d9481c995858da1959606a1b604082015260600190565b60208082526019908201527f436f6e74726163742062616c616e6365206973206e6f74203000000000000000604082015260600190565b602080825260139082015272105b1c9958591e481a5b9a5d1a585b1a5e9959606a1b604082015260600190565b6020808252601b908201527f4572726f72207768696c652064656c65676174696e672063616c6c0000000000604082015260600190565b6020808252601f908201527f4465706f7369742063616e206f6e6c792062652063616c6c6564206f6e636500604082015260600190565b9081526020019056fea164736f6c6343000602000a",
    "linkReferences": {}
  }
}