{
  "abi": [
    {
      "inputs": [
        {
          "internalType": "address",
          "name": "_admin",
          "type": "address"
        },
        {
          "internalType": "address",
          "name": "_implementation",
          "type": "address"
        },
        {
          "internalType": "bytes",
          "name": "_initData",
          "type": "bytes"
        }
      ],
      "stateMutability": "nonpayable",
      "type": "constructor"
    },
    {
      "anonymous": false,
      "inputs": [
        {
          "indexed": true,
          "internalType": "address",
          "name": "implementation",
          "type": "address"
        }
      ],
      "name": "Upgraded",
      "type": "event"
    },
    {
      "stateMutability": "payable",
      "type": "fallback"
    },
    {
      "inputs": [],
      "name": "admin",
      "outputs": [
        {
          "internalType": "address",
          "name": "",
          "type": "address"
        }
      ],
      "stateMutability": "view",
      "type": "function"
    },
    {
      "inputs": [
        {
          "internalType": "address",
          "name": "_expectedAdmin",
          "type": "address"
        }
      ],
      "name": "approveNewAdmin",
      "outputs": [],
      "stateMutability": "nonpayable",
      "type": "function"
    },
    {
      "inputs": [],
      "name": "pendingAdmin",
      "outputs": [
        {
          "internalType": "address",
          "name": "",
          "type": "address"
        }
      ],
      "stateMutability": "view",
      "type": "function"
    },
    {
      "inputs": [
        {
          "internalType": "address",
          "name": "_newAdmin",
          "type": "address"
        }
      ],
      "name": "proposeNewAdmin",
      "outputs": [],
      "stateMutability": "nonpayable",
      "type": "function"
    },
    {
      "inputs": [
        {
          "internalType": "address",
          "name": "_newImplementation",
          "type": "address"
        }
      ],
      "name": "upgradeTo",
      "outputs": [],
      "stateMutability": "nonpayable",
      "type": "function"
    },
    {
      "stateMutability": "payable",
      "type": "receive"
    }
  ],
  "bytecode": {
    "object": "0x60806040523480156200001157600080fd5b5060405162000af038038062000af0833981016040819052620000349162000251565b8181600160405162000046906200033e565b6040519081900390200360008051602062000aa9833981519152146200006857fe5b6200007c826001600160e01b03620000c916565b8051156200009d576200009b82826200011a60201b6200041f1760201c565b505b5050600180546001600160a01b0319166001600160a01b039490941693909317909255506200048b9050565b620000df816200015260201b620002ec1760201c565b620001075760405162461bcd60e51b8152600401620000fe906200039c565b60405180910390fd5b60008051602062000aa983398151915255565b60606200014b838360405180606001604052806027815260200162000ac9602791396001600160e01b036200015816565b9392505050565b3b151590565b60606200016e846001600160e01b036200015216565b6200018d5760405162461bcd60e51b8152600401620000fe90620003f9565b60006060856001600160a01b031685604051620001ab919062000320565b600060405180830381855af49150503d8060008114620001e8576040519150601f19603f3d011682016040523d82523d6000602084013e620001ed565b606091505b509092509050620002098282866001600160e01b036200021316565b9695505050505050565b60608315620002245750816200014b565b825115620002355782518084602001fd5b8160405162461bcd60e51b8152600401620000fe919062000367565b60008060006060848603121562000266578283fd5b8351620002738162000472565b6020850151909350620002868162000472565b60408501519092506001600160401b0380821115620002a3578283fd5b81860187601f820112620002b5578384fd5b8051925081831115620002c6578384fd5b604051601f8401601f191681016020018381118282101715620002e7578586fd5b604052838152818401602001891015620002ff578485fd5b620003128460208301602085016200043f565b809450505050509250925092565b60008251620003348184602087016200043f565b9190910192915050565b7f656970313936372e70726f78792e696d706c656d656e746174696f6e000000008152601c0190565b6000602082528251806020840152620003888160408501602087016200043f565b601f01601f19169190910160400192915050565b60208082526036908201527f5570677261646561626c6550726f78793a206e657720696d706c656d656e746160408201527f74696f6e206973206e6f74206120636f6e747261637400000000000000000000606082015260800190565b60208082526026908201527f416464726573733a2064656c65676174652063616c6c20746f206e6f6e2d636f6040820152651b9d1c9858dd60d21b606082015260800190565b60005b838110156200045c57818101518382015260200162000442565b838111156200046c576000848401525b50505050565b6001600160a01b03811681146200048857600080fd5b50565b61060e806200049b6000396000f3fe60806040526004361061004e5760003560e01c806326782247146100655780633659cfe614610090578063a02fcc0a146100b0578063a6376746146100d0578063f851a440146100f05761005d565b3661005d5761005b610105565b005b61005b610105565b34801561007157600080fd5b5061007a61011f565b6040516100879190610320565b60405180910390f35b34801561009c57600080fd5b5061005b6100ab3660046102f2565b61012e565b3480156100bc57600080fd5b5061005b6100cb3660046102f2565b61016d565b3480156100dc57600080fd5b5061005b6100eb3660046102f2565b6101e9565b3480156100fc57600080fd5b5061007a61020b565b61010d61011d565b61011d61011861021a565b61023f565b565b6000546001600160a01b031681565b6001546001600160a01b031633146101615760405162461bcd60e51b8152600401610158906103e8565b60405180910390fd5b61016a81610263565b50565b6001546001600160a01b031633146101975760405162461bcd60e51b8152600401610158906103e8565b6000546001600160a01b038281169116146101c45760405162461bcd60e51b815260040161015890610334565b50600054600180546001600160a01b0319166001600160a01b03909216919091179055565b600080546001600160a01b0319166001600160a01b0392909216919091179055565b6001546001600160a01b031681565b7f360894a13ba1a3210667c828492db98dca3e2076cc3735a920a3ca505d382bbc5490565b3660008037600080366000845af43d6000803e80801561025e573d6000f35b3d6000fd5b61026c816102a3565b6040516001600160a01b038216907fbc7cd75a20ee27fd9adebab32041f755214dbc6bffa90cc0225b39da2e5c2d3b90600090a250565b6102ac816102ec565b6102c85760405162461bcd60e51b815260040161015890610392565b7f360894a13ba1a3210667c828492db98dca3e2076cc3735a920a3ca505d382bbc55565b3b151590565b600060208284031215610303578081fd5b81356001600160a01b0381168114610319578182fd5b9392505050565b6001600160a01b0391909116815260200190565b602080825260409082018190527f4578706563746564206e65772061646d696e206279207468652063757272656e908201527f742061646d696e206973206e6f74207468652070656e64696e672061646d696e606082015260800190565b60208082526036908201527f5570677261646561626c6550726f78793a206e657720696d706c656d656e74616040820152751d1a5bdb881a5cc81b9bdd08184818dbdb9d1c9858dd60521b606082015260800190565b60208082526017908201527f43616c6c6572206973206e6f74207468652061646d696e000000000000000000604082015260600190565b606061031983836040518060600160405280602781526020016105db60279139606061044a846102ec565b6104665760405162461bcd60e51b815260040161015890610564565b60006060856001600160a01b0316856040516104829190610515565b600060405180830381855af49150503d80600081146104bd576040519150601f19603f3d011682016040523d82523d6000602084013e6104c2565b606091505b50915091506104d28282866104dc565b9695505050505050565b606083156104eb575081610319565b8251156104fb5782518084602001fd5b8160405162461bcd60e51b81526004016101589190610531565b600082516105278184602087016105aa565b9190910192915050565b60006020825282518060208401526105508160408501602087016105aa565b601f01601f19169190910160400192915050565b60208082526026908201527f416464726573733a2064656c65676174652063616c6c20746f206e6f6e2d636f6040820152651b9d1c9858dd60d21b606082015260800190565b60005b838110156105c55781810151838201526020016105ad565b838111156105d4576000848401525b5050505056fe416464726573733a206c6f772d6c6576656c2064656c65676174652063616c6c206661696c6564a164736f6c6343000602000a360894a13ba1a3210667c828492db98dca3e2076cc3735a920a3ca505d382bbc416464726573733a206c6f772d6c6576656c2064656c65676174652063616c6c206661696c6564",
    "linkReferences": {}
  }
}